{
  "_format": "hh-sol-artifact-1",
  "contractName": "ElGamalVoting",
  "sourceName": "contracts/ElGamalVoting.sol",
  "abi": [
    {
      "inputs": [
        {
          "internalType": "uint256",
          "name": "_p",
          "type": "uint256"
        },
        {
          "internalType": "uint256",
          "name": "_g",
          "type": "uint256"
        },
        {
          "internalType": "uint256",
          "name": "_pk",
          "type": "uint256"
        }
      ],
      "stateMutability": "nonpayable",
      "type": "constructor"
    },
    {
      "anonymous": false,
      "inputs": [
        {
          "indexed": true,
          "internalType": "uint256",
          "name": "index",
          "type": "uint256"
        }
      ],
      "name": "CandidateAdded",
      "type": "event"
    },
    {
      "anonymous": false,
      "inputs": [
        {
          "indexed": true,
          "internalType": "address",
          "name": "voter",
          "type": "address"
        }
      ],
      "name": "VoteRecorded",
      "type": "event"
    },
    {
      "inputs": [
        {
          "internalType": "string",
          "name": "_name",
          "type": "string"
        }
      ],
      "name": "addCandidate",
      "outputs": [],
      "stateMutability": "nonpayable",
      "type": "function"
    },
    {
      "inputs": [],
      "name": "admin",
      "outputs": [
        {
          "internalType": "address",
          "name": "",
          "type": "address"
        }
      ],
      "stateMutability": "view",
      "type": "function"
    },
    {
      "inputs": [],
      "name": "candidateCount",
      "outputs": [
        {
          "internalType": "uint256",
          "name": "",
          "type": "uint256"
        }
      ],
      "stateMutability": "view",
      "type": "function"
    },
    {
      "inputs": [
        {
          "internalType": "uint256",
          "name": "",
          "type": "uint256"
        }
      ],
      "name": "candidates",
      "outputs": [
        {
          "internalType": "uint256",
          "name": "sumC1",
          "type": "uint256"
        },
        {
          "internalType": "uint256",
          "name": "sumC2",
          "type": "uint256"
        },
        {
          "internalType": "string",
          "name": "name",
          "type": "string"
        }
      ],
      "stateMutability": "view",
      "type": "function"
    },
    {
      "inputs": [],
      "name": "g",
      "outputs": [
        {
          "internalType": "uint256",
          "name": "",
          "type": "uint256"
        }
      ],
      "stateMutability": "view",
      "type": "function"
    },
    {
      "inputs": [
        {
          "internalType": "uint256",
          "name": "index",
          "type": "uint256"
        }
      ],
      "name": "getCandidate",
      "outputs": [
        {
          "internalType": "uint256",
          "name": "",
          "type": "uint256"
        },
        {
          "internalType": "uint256",
          "name": "",
          "type": "uint256"
        },
        {
          "internalType": "string",
          "name": "",
          "type": "string"
        }
      ],
      "stateMutability": "view",
      "type": "function"
    },
    {
      "inputs": [],
      "name": "p",
      "outputs": [
        {
          "internalType": "uint256",
          "name": "",
          "type": "uint256"
        }
      ],
      "stateMutability": "view",
      "type": "function"
    },
    {
      "inputs": [],
      "name": "pk",
      "outputs": [
        {
          "internalType": "uint256",
          "name": "",
          "type": "uint256"
        }
      ],
      "stateMutability": "view",
      "type": "function"
    },
    {
      "inputs": [
        {
          "internalType": "uint256[]",
          "name": "c1List",
          "type": "uint256[]"
        },
        {
          "internalType": "uint256[]",
          "name": "c2List",
          "type": "uint256[]"
        }
      ],
      "name": "vote",
      "outputs": [],
      "stateMutability": "nonpayable",
      "type": "function"
    },
    {
      "inputs": [
        {
          "internalType": "address",
          "name": "",
          "type": "address"
        }
      ],
      "name": "voters",
      "outputs": [
        {
          "internalType": "bool",
          "name": "",
          "type": "bool"
        }
      ],
      "stateMutability": "view",
      "type": "function"
    }
  ],
  "bytecode": "0x60806040523480156200001157600080fd5b50604051620014bc380380620014bc8339818101604052810190620000379190620000d5565b336000806101000a81548173ffffffffffffffffffffffffffffffffffffffff021916908373ffffffffffffffffffffffffffffffffffffffff16021790555082600181905550816002819055508060038190555050505062000131565b600080fd5b6000819050919050565b620000af816200009a565b8114620000bb57600080fd5b50565b600081519050620000cf81620000a4565b92915050565b600080600060608486031215620000f157620000f062000095565b5b60006200010186828701620000be565b93505060206200011486828701620000be565b92505060406200012786828701620000be565b9150509250925092565b61137b80620001416000396000f3fe608060405234801561001057600080fd5b506004361061009e5760003560e01c80639ae8886a116100665780639ae8886a1461015d578063a3ec138d1461017b578063a9a981a3146101ab578063e2179b8e146101c9578063f851a440146101e75761009e565b80633477ee2e146100a357806335b8e820146100d5578063462e91ec1461010757806358e14a45146101235780638733ece714610141575b600080fd5b6100bd60048036038101906100b891906108d3565b610205565b6040516100cc9392919061099f565b60405180910390f35b6100ef60048036038101906100ea91906108d3565b6102c7565b6040516100fe9392919061099f565b60405180910390f35b610121600480360381019061011c9190610b12565b610407565b005b61012b61054a565b6040516101389190610b5b565b60405180910390f35b61015b60048036038101906101569190610bd6565b610550565b005b61016561082c565b6040516101729190610b5b565b60405180910390f35b61019560048036038101906101909190610cb5565b610832565b6040516101a29190610cfd565b60405180910390f35b6101b3610852565b6040516101c09190610b5b565b60405180910390f35b6101d161085f565b6040516101de9190610b5b565b60405180910390f35b6101ef610865565b6040516101fc9190610d27565b60405180910390f35b6004818154811061021557600080fd5b906000526020600020906003020160009150905080600001549080600101549080600201805461024490610d71565b80601f016020809104026020016040519081016040528092919081815260200182805461027090610d71565b80156102bd5780601f10610292576101008083540402835291602001916102bd565b820191906000526020600020905b8154815290600101906020018083116102a057829003601f168201915b5050505050905083565b60008060606004805490508410610313576040517f08c379a000000000000000000000000000000000000000000000000000000000815260040161030a90610dee565b60405180910390fd5b60006004858154811061032957610328610e0e565b5b9060005260206000209060030201604051806060016040529081600082015481526020016001820154815260200160028201805461036690610d71565b80601f016020809104026020016040519081016040528092919081815260200182805461039290610d71565b80156103df5780601f106103b4576101008083540402835291602001916103df565b820191906000526020600020905b8154815290600101906020018083116103c257829003601f168201915b5050505050815250509050806000015181602001518260400151935093509350509193909250565b60008054906101000a900473ffffffffffffffffffffffffffffffffffffffff1673ffffffffffffffffffffffffffffffffffffffff163373ffffffffffffffffffffffffffffffffffffffff1614610495576040517f08c379a000000000000000000000000000000000000000000000000000000000815260040161048c90610e89565b60405180910390fd5b600460405180606001604052806001815260200160018152602001838152509080600181540180825580915050600190039060005260206000209060030201600090919091909150600082015181600001556020820151816001015560408201518160020190816105069190611055565b505050600160048054905061051b9190611156565b7fac8b2f02b2377999497876aaaf22092e9c545b35ce940fdbf7f0e97b5ece393660405160405180910390a250565b60035481565b600480549050848490501461059a576040517f08c379a0000000000000000000000000000000000000000000000000000000008152600401610591906111d6565b60405180910390fd5b60048054905082829050146105e4576040517f08c379a00000000000000000000000000000000000000000000000000000000081526004016105db90611242565b60405180910390fd5b600560003373ffffffffffffffffffffffffffffffffffffffff1673ffffffffffffffffffffffffffffffffffffffff16815260200190815260200160002060009054906101000a900460ff1615610671576040517f08c379a0000000000000000000000000000000000000000000000000000000008152600401610668906112ae565b60405180910390fd5b60005b60048054905081101561078a5760015480610692576106916112ce565b5b8585838181106106a5576106a4610e0e565b5b90506020020135600483815481106106c0576106bf610e0e565b5b90600052602060002090600302016000015409600482815481106106e7576106e6610e0e565b5b9060005260206000209060030201600001819055506001548061070d5761070c6112ce565b5b8383838181106107205761071f610e0e565b5b905060200201356004838154811061073b5761073a610e0e565b5b906000526020600020906003020160010154096004828154811061076257610761610e0e565b5b9060005260206000209060030201600101819055508080610782906112fd565b915050610674565b506001600560003373ffffffffffffffffffffffffffffffffffffffff1673ffffffffffffffffffffffffffffffffffffffff16815260200190815260200160002060006101000a81548160ff0219169083151502179055503373ffffffffffffffffffffffffffffffffffffffff167f5a0e026a5b993541f20a89fc2f1ac72b9735bf1824585e1736a0fe8ca8df412a60405160405180910390a250505050565b60015481565b60056020528060005260406000206000915054906101000a900460ff1681565b6000600480549050905090565b60025481565b60008054906101000a900473ffffffffffffffffffffffffffffffffffffffff1681565b6000604051905090565b600080fd5b600080fd5b6000819050919050565b6108b08161089d565b81146108bb57600080fd5b50565b6000813590506108cd816108a7565b92915050565b6000602082840312156108e9576108e8610893565b5b60006108f7848285016108be565b91505092915050565b6109098161089d565b82525050565b600081519050919050565b600082825260208201905092915050565b60005b8381101561094957808201518184015260208101905061092e565b60008484015250505050565b6000601f19601f8301169050919050565b60006109718261090f565b61097b818561091a565b935061098b81856020860161092b565b61099481610955565b840191505092915050565b60006060820190506109b46000830186610900565b6109c16020830185610900565b81810360408301526109d38184610966565b9050949350505050565b600080fd5b600080fd5b7f4e487b7100000000000000000000000000000000000000000000000000000000600052604160045260246000fd5b610a1f82610955565b810181811067ffffffffffffffff82111715610a3e57610a3d6109e7565b5b80604052505050565b6000610a51610889565b9050610a5d8282610a16565b919050565b600067ffffffffffffffff821115610a7d57610a7c6109e7565b5b610a8682610955565b9050602081019050919050565b82818337600083830152505050565b6000610ab5610ab084610a62565b610a47565b905082815260208101848484011115610ad157610ad06109e2565b5b610adc848285610a93565b509392505050565b600082601f830112610af957610af86109dd565b5b8135610b09848260208601610aa2565b91505092915050565b600060208284031215610b2857610b27610893565b5b600082013567ffffffffffffffff811115610b4657610b45610898565b5b610b5284828501610ae4565b91505092915050565b6000602082019050610b706000830184610900565b92915050565b600080fd5b600080fd5b60008083601f840112610b9657610b956109dd565b5b8235905067ffffffffffffffff811115610bb357610bb2610b76565b5b602083019150836020820283011115610bcf57610bce610b7b565b5b9250929050565b60008060008060408587031215610bf057610bef610893565b5b600085013567ffffffffffffffff811115610c0e57610c0d610898565b5b610c1a87828801610b80565b9450945050602085013567ffffffffffffffff811115610c3d57610c3c610898565b5b610c4987828801610b80565b925092505092959194509250565b600073ffffffffffffffffffffffffffffffffffffffff82169050919050565b6000610c8282610c57565b9050919050565b610c9281610c77565b8114610c9d57600080fd5b50565b600081359050610caf81610c89565b92915050565b600060208284031215610ccb57610cca610893565b5b6000610cd984828501610ca0565b91505092915050565b60008115159050919050565b610cf781610ce2565b82525050565b6000602082019050610d126000830184610cee565b92915050565b610d2181610c77565b82525050565b6000602082019050610d3c6000830184610d18565b92915050565b7f4e487b7100000000000000000000000000000000000000000000000000000000600052602260045260246000fd5b60006002820490506001821680610d8957607f821691505b602082108103610d9c57610d9b610d42565b5b50919050565b7f496e76616c696420696e64657800000000000000000000000000000000000000600082015250565b6000610dd8600d8361091a565b9150610de382610da2565b602082019050919050565b60006020820190508181036000830152610e0781610dcb565b9050919050565b7f4e487b7100000000000000000000000000000000000000000000000000000000600052603260045260246000fd5b7f41646d696e206f6e6c7900000000000000000000000000000000000000000000600082015250565b6000610e73600a8361091a565b9150610e7e82610e3d565b602082019050919050565b60006020820190508181036000830152610ea281610e66565b9050919050565b60008190508160005260206000209050919050565b60006020601f8301049050919050565b600082821b905092915050565b600060088302610f0b7fffffffffffffffffffffffffffffffffffffffffffffffffffffffffffffffff82610ece565b610f158683610ece565b95508019841693508086168417925050509392505050565b6000819050919050565b6000610f52610f4d610f488461089d565b610f2d565b61089d565b9050919050565b6000819050919050565b610f6c83610f37565b610f80610f7882610f59565b848454610edb565b825550505050565b600090565b610f95610f88565b610fa0818484610f63565b505050565b5b81811015610fc457610fb9600082610f8d565b600181019050610fa6565b5050565b601f82111561100957610fda81610ea9565b610fe384610ebe565b81016020851015610ff2578190505b611006610ffe85610ebe565b830182610fa5565b50505b505050565b600082821c905092915050565b600061102c6000198460080261100e565b1980831691505092915050565b6000611045838361101b565b9150826002028217905092915050565b61105e8261090f565b67ffffffffffffffff811115611077576110766109e7565b5b6110818254610d71565b61108c828285610fc8565b600060209050601f8311600181146110bf57600084156110ad578287015190505b6110b78582611039565b86555061111f565b601f1984166110cd86610ea9565b60005b828110156110f5578489015182556001820191506020850194506020810190506110d0565b86831015611112578489015161110e601f89168261101b565b8355505b6001600288020188555050505b505050505050565b7f4e487b7100000000000000000000000000000000000000000000000000000000600052601160045260246000fd5b60006111618261089d565b915061116c8361089d565b925082820390508181111561118457611183611127565b5b92915050565b7f496e76616c6964206331206c656e677468000000000000000000000000000000600082015250565b60006111c060118361091a565b91506111cb8261118a565b602082019050919050565b600060208201905081810360008301526111ef816111b3565b9050919050565b7f496e76616c6964206332206c656e677468000000000000000000000000000000600082015250565b600061122c60118361091a565b9150611237826111f6565b602082019050919050565b6000602082019050818103600083015261125b8161121f565b9050919050565b7f416c726561647920766f74656400000000000000000000000000000000000000600082015250565b6000611298600d8361091a565b91506112a382611262565b602082019050919050565b600060208201905081810360008301526112c78161128b565b9050919050565b7f4e487b7100000000000000000000000000000000000000000000000000000000600052601260045260246000fd5b60006113088261089d565b91507fffffffffffffffffffffffffffffffffffffffffffffffffffffffffffffffff820361133a57611339611127565b5b60018201905091905056fea264697066735822122055e3be4b1ef590b2d01881c87175fe8303d3083354e227fd050ce156801eaad464736f6c63430008130033",
  "linkReferences": {},
  "deployedLinkReferences": {}
}